{
  "contractName": "ContractingPlatform",
  "abi": [
    {
      "inputs": [],
      "stateMutability": "nonpayable",
      "type": "constructor"
    },
    {
      "anonymous": false,
      "inputs": [
        {
          "indexed": true,
          "internalType": "address",
          "name": "owner",
          "type": "address"
        },
        {
          "indexed": true,
          "internalType": "address",
          "name": "spender",
          "type": "address"
        },
        {
          "indexed": false,
          "internalType": "uint256",
          "name": "value",
          "type": "uint256"
        }
      ],
      "name": "Approval",
      "type": "event"
    },
    {
      "anonymous": false,
      "inputs": [
        {
          "indexed": true,
          "internalType": "address",
          "name": "from",
          "type": "address"
        },
        {
          "indexed": true,
          "internalType": "address",
          "name": "to",
          "type": "address"
        },
        {
          "indexed": false,
          "internalType": "uint256",
          "name": "value",
          "type": "uint256"
        }
      ],
      "name": "Transfer",
      "type": "event"
    },
    {
      "inputs": [],
      "name": "admin",
      "outputs": [
        {
          "internalType": "address",
          "name": "",
          "type": "address"
        }
      ],
      "stateMutability": "view",
      "type": "function",
      "constant": true
    },
    {
      "inputs": [
        {
          "internalType": "address",
          "name": "owner",
          "type": "address"
        },
        {
          "internalType": "address",
          "name": "spender",
          "type": "address"
        }
      ],
      "name": "allowance",
      "outputs": [
        {
          "internalType": "uint256",
          "name": "",
          "type": "uint256"
        }
      ],
      "stateMutability": "view",
      "type": "function",
      "constant": true
    },
    {
      "inputs": [
        {
          "internalType": "address",
          "name": "spender",
          "type": "address"
        },
        {
          "internalType": "uint256",
          "name": "amount",
          "type": "uint256"
        }
      ],
      "name": "approve",
      "outputs": [
        {
          "internalType": "bool",
          "name": "",
          "type": "bool"
        }
      ],
      "stateMutability": "nonpayable",
      "type": "function"
    },
    {
      "inputs": [
        {
          "internalType": "address",
          "name": "account",
          "type": "address"
        }
      ],
      "name": "balanceOf",
      "outputs": [
        {
          "internalType": "uint256",
          "name": "",
          "type": "uint256"
        }
      ],
      "stateMutability": "view",
      "type": "function",
      "constant": true
    },
    {
      "inputs": [],
      "name": "decimals",
      "outputs": [
        {
          "internalType": "uint8",
          "name": "",
          "type": "uint8"
        }
      ],
      "stateMutability": "view",
      "type": "function",
      "constant": true
    },
    {
      "inputs": [
        {
          "internalType": "address",
          "name": "spender",
          "type": "address"
        },
        {
          "internalType": "uint256",
          "name": "subtractedValue",
          "type": "uint256"
        }
      ],
      "name": "decreaseAllowance",
      "outputs": [
        {
          "internalType": "bool",
          "name": "",
          "type": "bool"
        }
      ],
      "stateMutability": "nonpayable",
      "type": "function"
    },
    {
      "inputs": [
        {
          "internalType": "address",
          "name": "spender",
          "type": "address"
        },
        {
          "internalType": "uint256",
          "name": "addedValue",
          "type": "uint256"
        }
      ],
      "name": "increaseAllowance",
      "outputs": [
        {
          "internalType": "bool",
          "name": "",
          "type": "bool"
        }
      ],
      "stateMutability": "nonpayable",
      "type": "function"
    },
    {
      "inputs": [],
      "name": "name",
      "outputs": [
        {
          "internalType": "string",
          "name": "",
          "type": "string"
        }
      ],
      "stateMutability": "view",
      "type": "function",
      "constant": true
    },
    {
      "inputs": [
        {
          "internalType": "address",
          "name": "",
          "type": "address"
        }
      ],
      "name": "parties",
      "outputs": [
        {
          "internalType": "string",
          "name": "name",
          "type": "string"
        },
        {
          "internalType": "bool",
          "name": "isValidator",
          "type": "bool"
        },
        {
          "internalType": "uint256",
          "name": "trust_score",
          "type": "uint256"
        },
        {
          "internalType": "uint256",
          "name": "balance",
          "type": "uint256"
        },
        {
          "internalType": "address",
          "name": "partyAddress",
          "type": "address"
        }
      ],
      "stateMutability": "view",
      "type": "function",
      "constant": true
    },
    {
      "inputs": [
        {
          "internalType": "uint256",
          "name": "",
          "type": "uint256"
        }
      ],
      "name": "partyAddresses",
      "outputs": [
        {
          "internalType": "address",
          "name": "",
          "type": "address"
        }
      ],
      "stateMutability": "view",
      "type": "function",
      "constant": true
    },
    {
      "inputs": [],
      "name": "projectCount",
      "outputs": [
        {
          "internalType": "uint256",
          "name": "",
          "type": "uint256"
        }
      ],
      "stateMutability": "view",
      "type": "function",
      "constant": true
    },
    {
      "inputs": [],
      "name": "symbol",
      "outputs": [
        {
          "internalType": "string",
          "name": "",
          "type": "string"
        }
      ],
      "stateMutability": "view",
      "type": "function",
      "constant": true
    },
    {
      "inputs": [],
      "name": "totalSupply",
      "outputs": [
        {
          "internalType": "uint256",
          "name": "",
          "type": "uint256"
        }
      ],
      "stateMutability": "view",
      "type": "function",
      "constant": true
    },
    {
      "inputs": [
        {
          "internalType": "address",
          "name": "to",
          "type": "address"
        },
        {
          "internalType": "uint256",
          "name": "amount",
          "type": "uint256"
        }
      ],
      "name": "transfer",
      "outputs": [
        {
          "internalType": "bool",
          "name": "",
          "type": "bool"
        }
      ],
      "stateMutability": "nonpayable",
      "type": "function"
    },
    {
      "inputs": [
        {
          "internalType": "address",
          "name": "from",
          "type": "address"
        },
        {
          "internalType": "address",
          "name": "to",
          "type": "address"
        },
        {
          "internalType": "uint256",
          "name": "amount",
          "type": "uint256"
        }
      ],
      "name": "transferFrom",
      "outputs": [
        {
          "internalType": "bool",
          "name": "",
          "type": "bool"
        }
      ],
      "stateMutability": "nonpayable",
      "type": "function"
    },
    {
      "inputs": [
        {
          "internalType": "string",
          "name": "_name",
          "type": "string"
        },
        {
          "internalType": "address",
          "name": "_partyAddress",
          "type": "address"
        }
      ],
      "name": "createParty",
      "outputs": [],
      "stateMutability": "payable",
      "type": "function",
      "payable": true
    },
    {
      "inputs": [
        {
          "internalType": "string",
          "name": "_name",
          "type": "string"
        },
        {
          "internalType": "address",
          "name": "_partyAddress",
          "type": "address"
        }
      ],
      "name": "updateParty",
      "outputs": [],
      "stateMutability": "nonpayable",
      "type": "function"
    },
    {
      "inputs": [
        {
          "internalType": "address",
          "name": "_partyAddress",
          "type": "address"
        }
      ],
      "name": "deleteParty",
      "outputs": [],
      "stateMutability": "nonpayable",
      "type": "function"
    },
    {
      "inputs": [
        {
          "internalType": "uint256",
          "name": "_budget",
          "type": "uint256"
        },
        {
          "internalType": "string",
          "name": "_title",
          "type": "string"
        },
        {
          "internalType": "string",
          "name": "_description",
          "type": "string"
        },
        {
          "internalType": "uint256",
          "name": "_deadline",
          "type": "uint256"
        }
      ],
      "name": "createProject",
      "outputs": [
        {
          "internalType": "uint256",
          "name": "",
          "type": "uint256"
        }
      ],
      "stateMutability": "nonpayable",
      "type": "function"
    },
    {
      "inputs": [
        {
          "internalType": "uint256",
          "name": "_projectId",
          "type": "uint256"
        },
        {
          "internalType": "uint256",
          "name": "_newBudget",
          "type": "uint256"
        },
        {
          "internalType": "string",
          "name": "_newTitle",
          "type": "string"
        },
        {
          "internalType": "string",
          "name": "_newDescription",
          "type": "string"
        },
        {
          "internalType": "uint256",
          "name": "_newDeadline",
          "type": "uint256"
        }
      ],
      "name": "updateProject",
      "outputs": [],
      "stateMutability": "nonpayable",
      "type": "function"
    },
    {
      "inputs": [
        {
          "internalType": "uint256",
          "name": "_projectId",
          "type": "uint256"
        }
      ],
      "name": "closeProject",
      "outputs": [],
      "stateMutability": "nonpayable",
      "type": "function"
    },
    {
      "inputs": [
        {
          "internalType": "address",
          "name": "_partyAddress",
          "type": "address"
        },
        {
          "internalType": "uint256",
          "name": "_projectId",
          "type": "uint256"
        },
        {
          "internalType": "string",
          "name": "_message",
          "type": "string"
        },
        {
          "internalType": "uint256",
          "name": "_amount",
          "type": "uint256"
        }
      ],
      "name": "createBid",
      "outputs": [],
      "stateMutability": "nonpayable",
      "type": "function"
    },
    {
      "inputs": [
        {
          "internalType": "address",
          "name": "_partyAddress",
          "type": "address"
        },
        {
          "internalType": "uint256",
          "name": "_projectId",
          "type": "uint256"
        }
      ],
      "name": "selectBid",
      "outputs": [],
      "stateMutability": "payable",
      "type": "function",
      "payable": true
    },
    {
      "inputs": [
        {
          "internalType": "address",
          "name": "_partyAddress",
          "type": "address"
        },
        {
          "internalType": "uint256",
          "name": "_projectId",
          "type": "uint256"
        }
      ],
      "name": "getBidCount",
      "outputs": [
        {
          "internalType": "uint256",
          "name": "",
          "type": "uint256"
        }
      ],
      "stateMutability": "view",
      "type": "function",
      "constant": true
    },
    {
      "inputs": [
        {
          "internalType": "address",
          "name": "_partyAddress",
          "type": "address"
        },
        {
          "internalType": "uint256",
          "name": "_projectId",
          "type": "uint256"
        },
        {
          "internalType": "uint256",
          "name": "_bidId",
          "type": "uint256"
        }
      ],
      "name": "getBidDetails",
      "outputs": [
        {
          "internalType": "string",
          "name": "",
          "type": "string"
        },
        {
          "internalType": "uint256",
          "name": "",
          "type": "uint256"
        },
        {
          "internalType": "address",
          "name": "",
          "type": "address"
        }
      ],
      "stateMutability": "view",
      "type": "function",
      "constant": true
    },
    {
      "inputs": [
        {
          "internalType": "address",
          "name": "_partyAddress",
          "type": "address"
        }
      ],
      "name": "getPartyDetails",
      "outputs": [
        {
          "internalType": "string",
          "name": "",
          "type": "string"
        },
        {
          "internalType": "address",
          "name": "",
          "type": "address"
        },
        {
          "internalType": "uint256",
          "name": "",
          "type": "uint256"
        },
        {
          "internalType": "uint256",
          "name": "",
          "type": "uint256"
        },
        {
          "internalType": "bool",
          "name": "",
          "type": "bool"
        },
        {
          "internalType": "uint256[]",
          "name": "",
          "type": "uint256[]"
        }
      ],
      "stateMutability": "view",
      "type": "function",
      "constant": true
    },
    {
      "inputs": [
        {
          "internalType": "address",
          "name": "_partyAddress",
          "type": "address"
        }
      ],
      "name": "getProjectCount",
      "outputs": [
        {
          "internalType": "uint256",
          "name": "",
          "type": "uint256"
        }
      ],
      "stateMutability": "view",
      "type": "function",
      "constant": true
    },
    {
      "inputs": [
        {
          "internalType": "address",
          "name": "_partyAddress",
          "type": "address"
        }
      ],
      "name": "getProjectIds",
      "outputs": [
        {
          "internalType": "uint256[]",
          "name": "",
          "type": "uint256[]"
        }
      ],
      "stateMutability": "view",
      "type": "function",
      "constant": true
    },
    {
      "inputs": [
        {
          "internalType": "address",
          "name": "_partyAddress",
          "type": "address"
        },
        {
          "internalType": "uint256",
          "name": "_projectId",
          "type": "uint256"
        }
      ],
      "name": "getProjectDetails",
      "outputs": [
        {
          "internalType": "string",
          "name": "",
          "type": "string"
        },
        {
          "internalType": "string",
          "name": "",
          "type": "string"
        },
        {
          "internalType": "uint256",
          "name": "",
          "type": "uint256"
        },
        {
          "internalType": "bool",
          "name": "",
          "type": "bool"
        },
        {
          "internalType": "uint256",
          "name": "",
          "type": "uint256"
        },
        {
          "internalType": "address[]",
          "name": "",
          "type": "address[]"
        }
      ],
      "stateMutability": "view",
      "type": "function",
      "constant": true
    },
    {
      "inputs": [],
      "name": "getPartyCount",
      "outputs": [
        {
          "internalType": "uint256",
          "name": "",
          "type": "uint256"
        }
      ],
      "stateMutability": "view",
      "type": "function",
      "constant": true
    },
    {
      "inputs": [
        {
          "internalType": "uint256",
          "name": "index",
          "type": "uint256"
        }
      ],
      "name": "getPartyAddress",
      "outputs": [
        {
          "internalType": "address",
          "name": "",
          "type": "address"
        }
      ],
      "stateMutability": "view",
      "type": "function",
      "constant": true
    },
    {
      "inputs": [],
      "name": "random",
      "outputs": [
        {
          "internalType": "uint256",
          "name": "",
          "type": "uint256"
        }
      ],
      "stateMutability": "view",
      "type": "function",
      "constant": true
    }
  ],
  "bytecode": "0x60806040523480156200001157600080fd5b506040518060400160405280600a81526020017f41534b5320546f6b656e000000000000000000000000000000000000000000008152506040518060400160405280600481526020017f41534b530000000000000000000000000000000000000000000000000000000081525081600390816200008f919062000506565b508060049081620000a1919062000506565b50505033600860006101000a81548173ffffffffffffffffffffffffffffffffffffffff021916908373ffffffffffffffffffffffffffffffffffffffff1602179055506200010f3377cbea6f8ceb02bb399bf4f8a69f76449072000000000000006200011560201b60201c565b62000708565b600073ffffffffffffffffffffffffffffffffffffffff168273ffffffffffffffffffffffffffffffffffffffff160362000187576040517f08c379a00000000000000000000000000000000000000000000000000000000081526004016200017e906200064e565b60405180910390fd5b6200019b600083836200028260201b60201c565b8060026000828254620001af91906200069f565b92505081905550806000808473ffffffffffffffffffffffffffffffffffffffff1673ffffffffffffffffffffffffffffffffffffffff168152602001908152602001600020600082825401925050819055508173ffffffffffffffffffffffffffffffffffffffff16600073ffffffffffffffffffffffffffffffffffffffff167fddf252ad1be2c89b69c2b068fc378daa952ba7f163c4a11628f55a4df523b3ef83604051620002629190620006eb565b60405180910390a36200027e600083836200028760201b60201c565b5050565b505050565b505050565b600081519050919050565b7f4e487b7100000000000000000000000000000000000000000000000000000000600052604160045260246000fd5b7f4e487b7100000000000000000000000000000000000000000000000000000000600052602260045260246000fd5b600060028204905060018216806200030e57607f821691505b602082108103620003245762000323620002c6565b5b50919050565b60008190508160005260206000209050919050565b60006020601f8301049050919050565b600082821b905092915050565b6000600883026200038e7fffffffffffffffffffffffffffffffffffffffffffffffffffffffffffffffff826200034f565b6200039a86836200034f565b95508019841693508086168417925050509392505050565b6000819050919050565b6000819050919050565b6000620003e7620003e1620003db84620003b2565b620003bc565b620003b2565b9050919050565b6000819050919050565b6200040383620003c6565b6200041b6200041282620003ee565b8484546200035c565b825550505050565b600090565b6200043262000423565b6200043f818484620003f8565b505050565b5b8181101562000467576200045b60008262000428565b60018101905062000445565b5050565b601f821115620004b65762000480816200032a565b6200048b846200033f565b810160208510156200049b578190505b620004b3620004aa856200033f565b83018262000444565b50505b505050565b600082821c905092915050565b6000620004db60001984600802620004bb565b1980831691505092915050565b6000620004f68383620004c8565b9150826002028217905092915050565b62000511826200028c565b67ffffffffffffffff8111156200052d576200052c62000297565b5b620005398254620002f5565b620005468282856200046b565b600060209050601f8311600181146200057e576000841562000569578287015190505b620005758582620004e8565b865550620005e5565b601f1984166200058e866200032a565b60005b82811015620005b85784890151825560018201915060208501945060208101905062000591565b86831015620005d85784890151620005d4601f891682620004c8565b8355505b6001600288020188555050505b505050505050565b600082825260208201905092915050565b7f45524332303a206d696e7420746f20746865207a65726f206164647265737300600082015250565b600062000636601f83620005ed565b91506200064382620005fe565b602082019050919050565b60006020820190508181036000830152620006698162000627565b9050919050565b7f4e487b7100000000000000000000000000000000000000000000000000000000600052601160045260246000fd5b6000620006ac82620003b2565b9150620006b983620003b2565b9250828201905080821115620006d457620006d362000670565b5b92915050565b620006e581620003b2565b82525050565b6000602082019050620007026000830184620006da565b92915050565b61521580620007186000396000f3fe6080604052600436106101e25760003560e01c806370a0823111610102578063c5ce863611610095578063eac2473711610064578063eac24737146107a5578063ef8c0391146107e4578063f851a4401461080d578063f91b6ae514610838576101e2565b8063c5ce8636146106c0578063c792d8fd14610702578063cc8e2f091461073f578063dd62ed3e14610768576101e2565b806393dc12e6116100d157806393dc12e6146105f257806395d89b411461061b578063a457c2d714610646578063a9059cbb14610683576101e2565b806370a082311461051257806372d589dd1461054f5780637ed5c8de1461058c57806389898ef5146105b5576101e2565b806336fbad261161017a5780634f235207116101495780634f2352071461043e5780635ec01e4d1461047f57806360b960e5146104aa57806367117811146104d5576101e2565b806336fbad261461037d578063392b5f02146103a857806339509351146103e55780634aa57aeb14610422576101e2565b80631a0a4d4c116101b65780631a0a4d4c146102bc5780631abe0d60146102f957806323b872dd14610315578063313ce56714610352576101e2565b8062da7228146101e757806306fdde0314610229578063095ea7b31461025457806318160ddd14610291575b600080fd5b3480156101f357600080fd5b5061020e6004803603810190610209919061381e565b610861565b604051610220969594939291906139dc565b60405180910390f35b34801561023557600080fd5b5061023e610a7e565b60405161024b9190613a4b565b60405180910390f35b34801561026057600080fd5b5061027b60048036038101906102769190613a99565b610b10565b6040516102889190613ad9565b60405180910390f35b34801561029d57600080fd5b506102a6610b33565b6040516102b39190613af4565b60405180910390f35b3480156102c857600080fd5b506102e360048036038101906102de919061381e565b610b3d565b6040516102f09190613af4565b60405180910390f35b610313600480360381019061030e9190613c44565b610c5c565b005b34801561032157600080fd5b5061033c60048036038101906103379190613ca0565b610f0e565b6040516103499190613ad9565b60405180910390f35b34801561035e57600080fd5b50610367610f3d565b6040516103749190613d0f565b60405180910390f35b34801561038957600080fd5b50610392610f46565b60405161039f9190613af4565b60405180910390f35b3480156103b457600080fd5b506103cf60048036038101906103ca9190613d2a565b610f4c565b6040516103dc9190613d57565b60405180910390f35b3480156103f157600080fd5b5061040c60048036038101906104079190613a99565b610f94565b6040516104199190613ad9565b60405180910390f35b61043c60048036038101906104379190613a99565b610fcb565b005b34801561044a57600080fd5b506104656004803603810190610460919061381e565b6111a2565b604051610476959493929190613d72565b60405180910390f35b34801561048b57600080fd5b5061049461128d565b6040516104a19190613af4565b60405180910390f35b3480156104b657600080fd5b506104bf6112c7565b6040516104cc9190613af4565b60405180910390f35b3480156104e157600080fd5b506104fc60048036038101906104f79190613a99565b6112d4565b6040516105099190613af4565b60405180910390f35b34801561051e57600080fd5b506105396004803603810190610534919061381e565b6113d0565b6040516105469190613af4565b60405180910390f35b34801561055b57600080fd5b506105766004803603810190610571919061381e565b611418565b6040516105839190613dcc565b60405180910390f35b34801561059857600080fd5b506105b360048036038101906105ae9190613c44565b611583565b005b3480156105c157600080fd5b506105dc60048036038101906105d79190613dee565b61177e565b6040516105e99190613af4565b60405180910390f35b3480156105fe57600080fd5b5061061960048036038101906106149190613d2a565b611c83565b005b34801561062757600080fd5b50610630611e6c565b60405161063d9190613a4b565b60405180910390f35b34801561065257600080fd5b5061066d60048036038101906106689190613a99565b611efe565b60405161067a9190613ad9565b60405180910390f35b34801561068f57600080fd5b506106aa60048036038101906106a59190613a99565b611f75565b6040516106b79190613ad9565b60405180910390f35b3480156106cc57600080fd5b506106e760048036038101906106e29190613a99565b611f98565b6040516106f996959493929190613f4b565b60405180910390f35b34801561070e57600080fd5b5061072960048036038101906107249190613d2a565b612405565b6040516107369190613d57565b60405180910390f35b34801561074b57600080fd5b5061076660048036038101906107619190613fc1565b612444565b005b34801561077457600080fd5b5061078f600480360381019061078a9190614074565b612603565b60405161079c9190613af4565b60405180910390f35b3480156107b157600080fd5b506107cc60048036038101906107c791906140b4565b61268a565b6040516107db93929190614107565b60405180910390f35b3480156107f057600080fd5b5061080b6004803603810190610806919061381e565b612847565b005b34801561081957600080fd5b50610822612c25565b60405161082f9190613d57565b60405180910390f35b34801561084457600080fd5b5061085f600480360381019061085a9190614145565b612c4b565b005b606060008060008060606000600560008973ffffffffffffffffffffffffffffffffffffffff1673ffffffffffffffffffffffffffffffffffffffff1681526020019081526020016000209050600073ffffffffffffffffffffffffffffffffffffffff168160040160009054906101000a900473ffffffffffffffffffffffffffffffffffffffff1673ffffffffffffffffffffffffffffffffffffffff1603610941576040517f08c379a000000000000000000000000000000000000000000000000000000000815260040161093890614214565b60405180910390fd5b806000018160040160009054906101000a900473ffffffffffffffffffffffffffffffffffffffff16826003015483600201548460010160009054906101000a900460ff168560050185805461099690614263565b80601f01602080910402602001604051908101604052809291908181526020018280546109c290614263565b8015610a0f5780601f106109e457610100808354040283529160200191610a0f565b820191906000526020600020905b8154815290600101906020018083116109f257829003601f168201915b5050505050955080805480602002602001604051908101604052809291908181526020018280548015610a6157602002820191906000526020600020905b815481526020019060010190808311610a4d575b505050505090509650965096509650965096505091939550919395565b606060038054610a8d90614263565b80601f0160208091040260200160405190810160405280929190818152602001828054610ab990614263565b8015610b065780601f10610adb57610100808354040283529160200191610b06565b820191906000526020600020905b815481529060010190602001808311610ae957829003601f168201915b5050505050905090565b600080610b1b612f92565b9050610b28818585612f9a565b600191505092915050565b6000600254905090565b60008073ffffffffffffffffffffffffffffffffffffffff16600560008473ffffffffffffffffffffffffffffffffffffffff1673ffffffffffffffffffffffffffffffffffffffff16815260200190815260200160002060040160009054906101000a900473ffffffffffffffffffffffffffffffffffffffff1673ffffffffffffffffffffffffffffffffffffffff1603610c0f576040517f08c379a0000000000000000000000000000000000000000000000000000000008152600401610c0690614214565b60405180910390fd5b600560008373ffffffffffffffffffffffffffffffffffffffff1673ffffffffffffffffffffffffffffffffffffffff168152602001908152602001600020600501805490509050919050565b600073ffffffffffffffffffffffffffffffffffffffff16600560008373ffffffffffffffffffffffffffffffffffffffff1673ffffffffffffffffffffffffffffffffffffffff16815260200190815260200160002060040160009054906101000a900473ffffffffffffffffffffffffffffffffffffffff1673ffffffffffffffffffffffffffffffffffffffff1614610d2d576040517f08c379a0000000000000000000000000000000000000000000000000000000008152600401610d24906142e0565b60405180910390fd5b6000600560008373ffffffffffffffffffffffffffffffffffffffff1673ffffffffffffffffffffffffffffffffffffffff168152602001908152602001600020905082816000019081610d8191906144ac565b50818160040160006101000a81548173ffffffffffffffffffffffffffffffffffffffff021916908373ffffffffffffffffffffffffffffffffffffffff160217905550600067ffffffffffffffff811115610de057610ddf613b19565b5b604051908082528060200260200182016040528015610e0e5781602001602082028036833780820191505090505b50816005019080519060200190610e269291906136e1565b5060008160010160006101000a81548160ff02191690831515021790555060008160030181905550600060329050610e94600860009054906101000a900473ffffffffffffffffffffffffffffffffffffffff1684670de0b6b3a764000084610e8f91906145ad565b613163565b610e9d836113d0565b82600201819055506006839080600181540180825580915050600190039060005260206000200160009091909190916101000a81548173ffffffffffffffffffffffffffffffffffffffff021916908373ffffffffffffffffffffffffffffffffffffffff16021790555050505050565b600080610f19612f92565b9050610f268582856133d9565b610f31858585613163565b60019150509392505050565b60006012905090565b60075481565b600060068281548110610f6257610f616145ef565b5b9060005260206000200160009054906101000a900473ffffffffffffffffffffffffffffffffffffffff169050919050565b600080610f9f612f92565b9050610fc0818585610fb18589612603565b610fbb919061461e565b612f9a565b600191505092915050565b6000600560008473ffffffffffffffffffffffffffffffffffffffff1673ffffffffffffffffffffffffffffffffffffffff168152602001908152602001600020600601600083815260200190815260200160002090508060060160009054906101000a900473ffffffffffffffffffffffffffffffffffffffff1673ffffffffffffffffffffffffffffffffffffffff163373ffffffffffffffffffffffffffffffffffffffff16146110b4576040517f08c379a00000000000000000000000000000000000000000000000000000000081526004016110ab906146c4565b60405180910390fd5b8060030160009054906101000a900460ff1615611106576040517f08c379a00000000000000000000000000000000000000000000000000000000081526004016110fd90614756565b60405180910390fd5b806007015442101561114d576040517f08c379a0000000000000000000000000000000000000000000000000000000008152600401611144906147c2565b60405180910390fd5b6000816004018054905090506000811161119c576040517f08c379a000000000000000000000000000000000000000000000000000000000815260040161119390614854565b60405180910390fd5b50505050565b60056020528060005260406000206000915090508060000180546111c590614263565b80601f01602080910402602001604051908101604052809291908181526020018280546111f190614263565b801561123e5780601f106112135761010080835404028352916020019161123e565b820191906000526020600020905b81548152906001019060200180831161122157829003601f168201915b5050505050908060010160009054906101000a900460ff16908060020154908060030154908060040160009054906101000a900473ffffffffffffffffffffffffffffffffffffffff16905085565b600044426006805490506040516020016112a993929190614895565b6040516020818303038152906040528051906020012060001c905090565b6000600680549050905090565b600080600560008573ffffffffffffffffffffffffffffffffffffffff1673ffffffffffffffffffffffffffffffffffffffff1681526020019081526020016000206006016000848152602001908152602001600020600201541161136e576040517f08c379a00000000000000000000000000000000000000000000000000000000081526004016113659061491e565b60405180910390fd5b600560008473ffffffffffffffffffffffffffffffffffffffff1673ffffffffffffffffffffffffffffffffffffffff168152602001908152602001600020600601600083815260200190815260200160002060040180549050905092915050565b60008060008373ffffffffffffffffffffffffffffffffffffffff1673ffffffffffffffffffffffffffffffffffffffff168152602001908152602001600020549050919050565b6060600073ffffffffffffffffffffffffffffffffffffffff16600560008473ffffffffffffffffffffffffffffffffffffffff1673ffffffffffffffffffffffffffffffffffffffff16815260200190815260200160002060040160009054906101000a900473ffffffffffffffffffffffffffffffffffffffff1673ffffffffffffffffffffffffffffffffffffffff16036114eb576040517f08c379a00000000000000000000000000000000000000000000000000000000081526004016114e290614214565b60405180910390fd5b600560008373ffffffffffffffffffffffffffffffffffffffff1673ffffffffffffffffffffffffffffffffffffffff16815260200190815260200160002060050180548060200260200160405190810160405280929190818152602001828054801561157757602002820191906000526020600020905b815481526020019060010190808311611563575b50505050509050919050565b600073ffffffffffffffffffffffffffffffffffffffff16600560008373ffffffffffffffffffffffffffffffffffffffff1673ffffffffffffffffffffffffffffffffffffffff16815260200190815260200160002060040160009054906101000a900473ffffffffffffffffffffffffffffffffffffffff1673ffffffffffffffffffffffffffffffffffffffff1603611654576040517f08c379a000000000000000000000000000000000000000000000000000000000815260040161164b90614214565b60405180910390fd5b600560008273ffffffffffffffffffffffffffffffffffffffff1673ffffffffffffffffffffffffffffffffffffffff16815260200190815260200160002060040160009054906101000a900473ffffffffffffffffffffffffffffffffffffffff1673ffffffffffffffffffffffffffffffffffffffff163373ffffffffffffffffffffffffffffffffffffffff1614611724576040517f08c379a000000000000000000000000000000000000000000000000000000000815260040161171b906149b0565b60405180910390fd5b6000600560008373ffffffffffffffffffffffffffffffffffffffff1673ffffffffffffffffffffffffffffffffffffffff16815260200190815260200160002090508281600001908161177891906144ac565b50505050565b60008073ffffffffffffffffffffffffffffffffffffffff16600560003373ffffffffffffffffffffffffffffffffffffffff1673ffffffffffffffffffffffffffffffffffffffff16815260200190815260200160002060040160009054906101000a900473ffffffffffffffffffffffffffffffffffffffff1673ffffffffffffffffffffffffffffffffffffffff1603611850576040517f08c379a000000000000000000000000000000000000000000000000000000000815260040161184790614214565b60405180910390fd5b600060075490506000600560003373ffffffffffffffffffffffffffffffffffffffff1673ffffffffffffffffffffffffffffffffffffffff16815260200190815260200160002060060160008381526020019081526020016000209050858160000190816118bf91906144ac565b50848160010190816118d191906144ac565b5086816002018190555060018160030160006101000a81548160ff021916908315150217905550600067ffffffffffffffff81111561191357611912613b19565b5b6040519080825280602002602001820160405280156119415781602001602082028036833780820191505090505b508160040190805190602001906119599291906136e1565b50338160060160006101000a81548173ffffffffffffffffffffffffffffffffffffffff021916908373ffffffffffffffffffffffffffffffffffffffff16021790555083816007018190555060008160080160006101000a81548173ffffffffffffffffffffffffffffffffffffffff021916908373ffffffffffffffffffffffffffffffffffffffff1602179055506000816009018190555060006119fe613465565b90506000815190506000600a8211611a165781611a19565b600a5b905060005b81811015611bf157600560003373ffffffffffffffffffffffffffffffffffffffff1673ffffffffffffffffffffffffffffffffffffffff16815260200190815260200160002060040160009054906101000a900473ffffffffffffffffffffffffffffffffffffffff1673ffffffffffffffffffffffffffffffffffffffff168460018386611aae91906149d0565b611ab891906149d0565b81518110611ac957611ac86145ef565b5b602002602001015173ffffffffffffffffffffffffffffffffffffffff1614611bde5784600a018460018386611aff91906149d0565b611b0991906149d0565b81518110611b1a57611b196145ef565b5b60200260200101519080600181540180825580915050600190039060005260206000200160009091909190916101000a81548173ffffffffffffffffffffffffffffffffffffffff021916908373ffffffffffffffffffffffffffffffffffffffff1602179055506001600560003373ffffffffffffffffffffffffffffffffffffffff1673ffffffffffffffffffffffffffffffffffffffff16815260200190815260200160002060010160006101000a81548160ff0219169083151502179055505b8080611be990614a04565b915050611a1e565b50600560003373ffffffffffffffffffffffffffffffffffffffff1673ffffffffffffffffffffffffffffffffffffffff16815260200190815260200160002060050185908060018154018082558091505060019003906000526020600020016000909190919091505560076000815480929190611c6e90614a04565b91905055508495505050505050949350505050565b6000600560003373ffffffffffffffffffffffffffffffffffffffff1673ffffffffffffffffffffffffffffffffffffffff168152602001908152602001600020600601600083815260200190815260200160002090506000816002015411611d21576040517f08c379a0000000000000000000000000000000000000000000000000000000008152600401611d189061491e565b60405180910390fd5b8060060160009054906101000a900473ffffffffffffffffffffffffffffffffffffffff1673ffffffffffffffffffffffffffffffffffffffff163373ffffffffffffffffffffffffffffffffffffffff1614611db3576040517f08c379a0000000000000000000000000000000000000000000000000000000008152600401611daa90614abe565b60405180910390fd5b8060070154421015611dfa576040517f08c379a0000000000000000000000000000000000000000000000000000000008152600401611df1906147c2565b60405180910390fd5b8060030160009054906101000a900460ff16611e4b576040517f08c379a0000000000000000000000000000000000000000000000000000000008152600401611e4290614b2a565b60405180910390fd5b60008160030160006101000a81548160ff0219169083151502179055505050565b606060048054611e7b90614263565b80601f0160208091040260200160405190810160405280929190818152602001828054611ea790614263565b8015611ef45780601f10611ec957610100808354040283529160200191611ef4565b820191906000526020600020905b815481529060010190602001808311611ed757829003601f168201915b5050505050905090565b600080611f09612f92565b90506000611f178286612603565b905083811015611f5c576040517f08c379a0000000000000000000000000000000000000000000000000000000008152600401611f5390614bbc565b60405180910390fd5b611f698286868403612f9a565b60019250505092915050565b600080611f80612f92565b9050611f8d818585613163565b600191505092915050565b606080600080600060606000600560008a73ffffffffffffffffffffffffffffffffffffffff1673ffffffffffffffffffffffffffffffffffffffff1681526020019081526020016000206006016000898152602001908152602001600020600201541161203b576040517f08c379a00000000000000000000000000000000000000000000000000000000081526004016120329061491e565b60405180910390fd5b600560008973ffffffffffffffffffffffffffffffffffffffff1673ffffffffffffffffffffffffffffffffffffffff1681526020019081526020016000206006016000888152602001908152602001600020600001600560008a73ffffffffffffffffffffffffffffffffffffffff1673ffffffffffffffffffffffffffffffffffffffff1681526020019081526020016000206006016000898152602001908152602001600020600101600560008b73ffffffffffffffffffffffffffffffffffffffff1673ffffffffffffffffffffffffffffffffffffffff16815260200190815260200160002060060160008a815260200190815260200160002060020154600560008c73ffffffffffffffffffffffffffffffffffffffff1673ffffffffffffffffffffffffffffffffffffffff16815260200190815260200160002060060160008b815260200190815260200160002060030160009054906101000a900460ff16600560008d73ffffffffffffffffffffffffffffffffffffffff1673ffffffffffffffffffffffffffffffffffffffff16815260200190815260200160002060060160008c815260200190815260200160002060070154600560008e73ffffffffffffffffffffffffffffffffffffffff1673ffffffffffffffffffffffffffffffffffffffff16815260200190815260200160002060060160008d8152602001908152602001600020600a0185805461225b90614263565b80601f016020809104026020016040519081016040528092919081815260200182805461228790614263565b80156122d45780601f106122a9576101008083540402835291602001916122d4565b820191906000526020600020905b8154815290600101906020018083116122b757829003601f168201915b505050505095508480546122e790614263565b80601f016020809104026020016040519081016040528092919081815260200182805461231390614263565b80156123605780601f1061233557610100808354040283529160200191612360565b820191906000526020600020905b81548152906001019060200180831161234357829003601f168201915b50505050509450808054806020026020016040519081016040528092919081815260200182805480156123e857602002820191906000526020600020905b8160009054906101000a900473ffffffffffffffffffffffffffffffffffffffff1673ffffffffffffffffffffffffffffffffffffffff168152602001906001019080831161239e575b505050505090509550955095509550955095509295509295509295565b6006818154811061241557600080fd5b906000526020600020016000915054906101000a900473ffffffffffffffffffffffffffffffffffffffff1681565b6000600560003373ffffffffffffffffffffffffffffffffffffffff1673ffffffffffffffffffffffffffffffffffffffff1681526020019081526020016000206006016000878152602001908152602001600020905060008160020154116124e2576040517f08c379a00000000000000000000000000000000000000000000000000000000081526004016124d99061491e565b60405180910390fd5b3373ffffffffffffffffffffffffffffffffffffffff168160060160009054906101000a900473ffffffffffffffffffffffffffffffffffffffff1673ffffffffffffffffffffffffffffffffffffffff1614612574576040517f08c379a000000000000000000000000000000000000000000000000000000000815260040161256b90614c4e565b60405180910390fd5b8060030160009054906101000a900460ff166125c5576040517f08c379a00000000000000000000000000000000000000000000000000000000081526004016125bc90614ce0565b60405180910390fd5b848160020181905550838160000190816125df91906144ac565b50828160010190816125f191906144ac565b50818160070181905550505050505050565b6000600160008473ffffffffffffffffffffffffffffffffffffffff1673ffffffffffffffffffffffffffffffffffffffff16815260200190815260200160002060008373ffffffffffffffffffffffffffffffffffffffff1673ffffffffffffffffffffffffffffffffffffffff16815260200190815260200160002054905092915050565b60606000806000600560008873ffffffffffffffffffffffffffffffffffffffff1673ffffffffffffffffffffffffffffffffffffffff1681526020019081526020016000206006016000878152602001908152602001600020905060008160050160008781526020019081526020016000206001015411612741576040517f08c379a000000000000000000000000000000000000000000000000000000000815260040161273890614d4c565b60405180910390fd5b8060050160008681526020019081526020016000206000018160050160008781526020019081526020016000206001015482600501600088815260200190815260200160002060020160009054906101000a900473ffffffffffffffffffffffffffffffffffffffff168280546127b790614263565b80601f01602080910402602001604051908101604052809291908181526020018280546127e390614263565b80156128305780601f1061280557610100808354040283529160200191612830565b820191906000526020600020905b81548152906001019060200180831161281357829003601f168201915b505050505092509350935093505093509350939050565b600073ffffffffffffffffffffffffffffffffffffffff16600560008373ffffffffffffffffffffffffffffffffffffffff1673ffffffffffffffffffffffffffffffffffffffff16815260200190815260200160002060040160009054906101000a900473ffffffffffffffffffffffffffffffffffffffff1673ffffffffffffffffffffffffffffffffffffffff1603612918576040517f08c379a000000000000000000000000000000000000000000000000000000000815260040161290f90614214565b60405180910390fd5b600560008273ffffffffffffffffffffffffffffffffffffffff1673ffffffffffffffffffffffffffffffffffffffff16815260200190815260200160002060040160009054906101000a900473ffffffffffffffffffffffffffffffffffffffff1673ffffffffffffffffffffffffffffffffffffffff163373ffffffffffffffffffffffffffffffffffffffff16146129e8576040517f08c379a00000000000000000000000000000000000000000000000000000000081526004016129df906149b0565b60405180910390fd5b600560008273ffffffffffffffffffffffffffffffffffffffff1673ffffffffffffffffffffffffffffffffffffffff16815260200190815260200160002060008082016000612a38919061372e565b6001820160006101000a81549060ff0219169055600282016000905560038201600090556004820160006101000a81549073ffffffffffffffffffffffffffffffffffffffff0219169055600582016000612a93919061376e565b505060005b600680549050811015612c21573373ffffffffffffffffffffffffffffffffffffffff1660068281548110612ad057612acf6145ef565b5b9060005260206000200160009054906101000a900473ffffffffffffffffffffffffffffffffffffffff1673ffffffffffffffffffffffffffffffffffffffff1603612c0e5760066001600680549050612b2a91906149d0565b81548110612b3b57612b3a6145ef565b5b9060005260206000200160009054906101000a900473ffffffffffffffffffffffffffffffffffffffff1660068281548110612b7a57612b796145ef565b5b9060005260206000200160006101000a81548173ffffffffffffffffffffffffffffffffffffffff021916908373ffffffffffffffffffffffffffffffffffffffff1602179055506006805480612bd457612bd3614d6c565b5b6001900381819060005260206000200160006101000a81549073ffffffffffffffffffffffffffffffffffffffff02191690559055612c21565b8080612c1990614a04565b915050612a98565b5050565b600860009054906101000a900473ffffffffffffffffffffffffffffffffffffffff1681565b6000600560008673ffffffffffffffffffffffffffffffffffffffff1673ffffffffffffffffffffffffffffffffffffffff16815260200190815260200160002060060160008581526020019081526020016000209050600073ffffffffffffffffffffffffffffffffffffffff16600560003373ffffffffffffffffffffffffffffffffffffffff1673ffffffffffffffffffffffffffffffffffffffff16815260200190815260200160002060040160009054906101000a900473ffffffffffffffffffffffffffffffffffffffff1673ffffffffffffffffffffffffffffffffffffffff1603612d73576040517f08c379a0000000000000000000000000000000000000000000000000000000008152600401612d6a90614214565b60405180910390fd5b6000816002015411612dba576040517f08c379a0000000000000000000000000000000000000000000000000000000008152600401612db19061491e565b60405180910390fd5b8060030160009054906101000a900460ff16612e0b576040517f08c379a0000000000000000000000000000000000000000000000000000000008152600401612e0290614de7565b60405180910390fd5b8060060160009054906101000a900473ffffffffffffffffffffffffffffffffffffffff1673ffffffffffffffffffffffffffffffffffffffff163373ffffffffffffffffffffffffffffffffffffffff1603612e9d576040517f08c379a0000000000000000000000000000000000000000000000000000000008152600401612e9490614e79565b60405180910390fd5b600060405180606001604052808581526020018481526020013373ffffffffffffffffffffffffffffffffffffffff16815250905060008260040180549050905082600401819080600181540180825580915050600190039060005260206000200160009091909190915055818360050160008381526020019081526020016000206000820151816000019081612f3491906144ac565b506020820151816001015560408201518160020160006101000a81548173ffffffffffffffffffffffffffffffffffffffff021916908373ffffffffffffffffffffffffffffffffffffffff16021790555090505050505050505050565b600033905090565b600073ffffffffffffffffffffffffffffffffffffffff168373ffffffffffffffffffffffffffffffffffffffff1603613009576040517f08c379a000000000000000000000000000000000000000000000000000000000815260040161300090614f0b565b60405180910390fd5b600073ffffffffffffffffffffffffffffffffffffffff168273ffffffffffffffffffffffffffffffffffffffff1603613078576040517f08c379a000000000000000000000000000000000000000000000000000000000815260040161306f90614f9d565b60405180910390fd5b80600160008573ffffffffffffffffffffffffffffffffffffffff1673ffffffffffffffffffffffffffffffffffffffff16815260200190815260200160002060008473ffffffffffffffffffffffffffffffffffffffff1673ffffffffffffffffffffffffffffffffffffffff168152602001908152602001600020819055508173ffffffffffffffffffffffffffffffffffffffff168373ffffffffffffffffffffffffffffffffffffffff167f8c5be1e5ebec7d5bd14f71427d1e84f3dd0314c0f7b2291e5b200ac8c7c3b925836040516131569190613af4565b60405180910390a3505050565b600073ffffffffffffffffffffffffffffffffffffffff168373ffffffffffffffffffffffffffffffffffffffff16036131d2576040517f08c379a00000000000000000000000000000000000000000000000000000000081526004016131c99061502f565b60405180910390fd5b600073ffffffffffffffffffffffffffffffffffffffff168273ffffffffffffffffffffffffffffffffffffffff1603613241576040517f08c379a0000000000000000000000000000000000000000000000000000000008152600401613238906150c1565b60405180910390fd5b61324c8383836136d7565b60008060008573ffffffffffffffffffffffffffffffffffffffff1673ffffffffffffffffffffffffffffffffffffffff168152602001908152602001600020549050818110156132d2576040517f08c379a00000000000000000000000000000000000000000000000000000000081526004016132c990615153565b60405180910390fd5b8181036000808673ffffffffffffffffffffffffffffffffffffffff1673ffffffffffffffffffffffffffffffffffffffff16815260200190815260200160002081905550816000808573ffffffffffffffffffffffffffffffffffffffff1673ffffffffffffffffffffffffffffffffffffffff168152602001908152602001600020600082825401925050819055508273ffffffffffffffffffffffffffffffffffffffff168473ffffffffffffffffffffffffffffffffffffffff167fddf252ad1be2c89b69c2b068fc378daa952ba7f163c4a11628f55a4df523b3ef846040516133c09190613af4565b60405180910390a36133d38484846136dc565b50505050565b60006133e58484612603565b90507fffffffffffffffffffffffffffffffffffffffffffffffffffffffffffffffff811461345f5781811015613451576040517f08c379a0000000000000000000000000000000000000000000000000000000008152600401613448906151bf565b60405180910390fd5b61345e8484848403612f9a565b5b50505050565b6060600060068054806020026020016040519081016040528092919081815260200182805480156134eb57602002820191906000526020600020905b8160009054906101000a900473ffffffffffffffffffffffffffffffffffffffff1673ffffffffffffffffffffffffffffffffffffffff16815260200190600101908083116134a1575b505050505090506000600190505b6006805490508110156136cf5760005b818110156136bb5760056000848381518110613528576135276145ef565b5b602002602001015173ffffffffffffffffffffffffffffffffffffffff1673ffffffffffffffffffffffffffffffffffffffff1681526020019081526020016000206002015460056000858581518110613585576135846145ef565b5b602002602001015173ffffffffffffffffffffffffffffffffffffffff1673ffffffffffffffffffffffffffffffffffffffff1681526020019081526020016000206002015410156136a85760008383815181106135e6576135e56145ef565b5b60200260200101519050838281518110613603576136026145ef565b5b602002602001015184848151811061361e5761361d6145ef565b5b602002602001019073ffffffffffffffffffffffffffffffffffffffff16908173ffffffffffffffffffffffffffffffffffffffff16815250508084838151811061366c5761366b6145ef565b5b602002602001019073ffffffffffffffffffffffffffffffffffffffff16908173ffffffffffffffffffffffffffffffffffffffff1681525050505b80806136b390614a04565b915050613509565b5080806136c790614a04565b9150506134f9565b508091505090565b505050565b505050565b82805482825590600052602060002090810192821561371d579160200282015b8281111561371c578251825591602001919060010190613701565b5b50905061372a919061378f565b5090565b50805461373a90614263565b6000825580601f1061374c575061376b565b601f01602090049060005260206000209081019061376a919061378f565b5b50565b508054600082559060005260206000209081019061378c919061378f565b50565b5b808211156137a8576000816000905550600101613790565b5090565b6000604051905090565b600080fd5b600080fd5b600073ffffffffffffffffffffffffffffffffffffffff82169050919050565b60006137eb826137c0565b9050919050565b6137fb816137e0565b811461380657600080fd5b50565b600081359050613818816137f2565b92915050565b600060208284031215613834576138336137b6565b5b600061384284828501613809565b91505092915050565b600081519050919050565b600082825260208201905092915050565b60005b8381101561388557808201518184015260208101905061386a565b60008484015250505050565b6000601f19601f8301169050919050565b60006138ad8261384b565b6138b78185613856565b93506138c7818560208601613867565b6138d081613891565b840191505092915050565b6138e4816137e0565b82525050565b6000819050919050565b6138fd816138ea565b82525050565b60008115159050919050565b61391881613903565b82525050565b600081519050919050565b600082825260208201905092915050565b6000819050602082019050919050565b613953816138ea565b82525050565b6000613965838361394a565b60208301905092915050565b6000602082019050919050565b60006139898261391e565b6139938185613929565b935061399e8361393a565b8060005b838110156139cf5781516139b68882613959565b97506139c183613971565b9250506001810190506139a2565b5085935050505092915050565b600060c08201905081810360008301526139f681896138a2565b9050613a0560208301886138db565b613a1260408301876138f4565b613a1f60608301866138f4565b613a2c608083018561390f565b81810360a0830152613a3e818461397e565b9050979650505050505050565b60006020820190508181036000830152613a6581846138a2565b905092915050565b613a76816138ea565b8114613a8157600080fd5b50565b600081359050613a9381613a6d565b92915050565b60008060408385031215613ab057613aaf6137b6565b5b6000613abe85828601613809565b9250506020613acf85828601613a84565b9150509250929050565b6000602082019050613aee600083018461390f565b92915050565b6000602082019050613b0960008301846138f4565b92915050565b600080fd5b600080fd5b7f4e487b7100000000000000000000000000000000000000000000000000000000600052604160045260246000fd5b613b5182613891565b810181811067ffffffffffffffff82111715613b7057613b6f613b19565b5b80604052505050565b6000613b836137ac565b9050613b8f8282613b48565b919050565b600067ffffffffffffffff821115613baf57613bae613b19565b5b613bb882613891565b9050602081019050919050565b82818337600083830152505050565b6000613be7613be284613b94565b613b79565b905082815260208101848484011115613c0357613c02613b14565b5b613c0e848285613bc5565b509392505050565b600082601f830112613c2b57613c2a613b0f565b5b8135613c3b848260208601613bd4565b91505092915050565b60008060408385031215613c5b57613c5a6137b6565b5b600083013567ffffffffffffffff811115613c7957613c786137bb565b5b613c8585828601613c16565b9250506020613c9685828601613809565b9150509250929050565b600080600060608486031215613cb957613cb86137b6565b5b6000613cc786828701613809565b9350506020613cd886828701613809565b9250506040613ce986828701613a84565b9150509250925092565b600060ff82169050919050565b613d0981613cf3565b82525050565b6000602082019050613d246000830184613d00565b92915050565b600060208284031215613d4057613d3f6137b6565b5b6000613d4e84828501613a84565b91505092915050565b6000602082019050613d6c60008301846138db565b92915050565b600060a0820190508181036000830152613d8c81886138a2565b9050613d9b602083018761390f565b613da860408301866138f4565b613db560608301856138f4565b613dc260808301846138db565b9695505050505050565b60006020820190508181036000830152613de6818461397e565b905092915050565b60008060008060808587031215613e0857613e076137b6565b5b6000613e1687828801613a84565b945050602085013567ffffffffffffffff811115613e3757613e366137bb565b5b613e4387828801613c16565b935050604085013567ffffffffffffffff811115613e6457613e636137bb565b5b613e7087828801613c16565b9250506060613e8187828801613a84565b91505092959194509250565b600081519050919050565b600082825260208201905092915050565b6000819050602082019050919050565b613ec2816137e0565b82525050565b6000613ed48383613eb9565b60208301905092915050565b6000602082019050919050565b6000613ef882613e8d565b613f028185613e98565b9350613f0d83613ea9565b8060005b83811015613f3e578151613f258882613ec8565b9750613f3083613ee0565b925050600181019050613f11565b5085935050505092915050565b600060c0820190508181036000830152613f6581896138a2565b90508181036020830152613f7981886138a2565b9050613f8860408301876138f4565b613f95606083018661390f565b613fa260808301856138f4565b81810360a0830152613fb48184613eed565b9050979650505050505050565b600080600080600060a08688031215613fdd57613fdc6137b6565b5b6000613feb88828901613a84565b9550506020613ffc88828901613a84565b945050604086013567ffffffffffffffff81111561401d5761401c6137bb565b5b61402988828901613c16565b935050606086013567ffffffffffffffff81111561404a576140496137bb565b5b61405688828901613c16565b925050608061406788828901613a84565b9150509295509295909350565b6000806040838503121561408b5761408a6137b6565b5b600061409985828601613809565b92505060206140aa85828601613809565b9150509250929050565b6000806000606084860312156140cd576140cc6137b6565b5b60006140db86828701613809565b93505060206140ec86828701613a84565b92505060406140fd86828701613a84565b9150509250925092565b6000606082019050818103600083015261412181866138a2565b905061413060208301856138f4565b61413d60408301846138db565b949350505050565b6000806000806080858703121561415f5761415e6137b6565b5b600061416d87828801613809565b945050602061417e87828801613a84565b935050604085013567ffffffffffffffff81111561419f5761419e6137bb565b5b6141ab87828801613c16565b92505060606141bc87828801613a84565b91505092959194509250565b7f506172747920646f6573206e6f74206578697374000000000000000000000000600082015250565b60006141fe601483613856565b9150614209826141c8565b602082019050919050565b6000602082019050818103600083015261422d816141f1565b9050919050565b7f4e487b7100000000000000000000000000000000000000000000000000000000600052602260045260246000fd5b6000600282049050600182168061427b57607f821691505b60208210810361428e5761428d614234565b5b50919050565b7f506172747920616c726561647920657869737473000000000000000000000000600082015250565b60006142ca601483613856565b91506142d582614294565b602082019050919050565b600060208201905081810360008301526142f9816142bd565b9050919050565b60008190508160005260206000209050919050565b60006020601f8301049050919050565b600082821b905092915050565b6000600883026143627fffffffffffffffffffffffffffffffffffffffffffffffffffffffffffffffff82614325565b61436c8683614325565b95508019841693508086168417925050509392505050565b6000819050919050565b60006143a96143a461439f846138ea565b614384565b6138ea565b9050919050565b6000819050919050565b6143c38361438e565b6143d76143cf826143b0565b848454614332565b825550505050565b600090565b6143ec6143df565b6143f78184846143ba565b505050565b5b8181101561441b576144106000826143e4565b6001810190506143fd565b5050565b601f8211156144605761443181614300565b61443a84614315565b81016020851015614449578190505b61445d61445585614315565b8301826143fc565b50505b505050565b600082821c905092915050565b600061448360001984600802614465565b1980831691505092915050565b600061449c8383614472565b9150826002028217905092915050565b6144b58261384b565b67ffffffffffffffff8111156144ce576144cd613b19565b5b6144d88254614263565b6144e382828561441f565b600060209050601f8311600181146145165760008415614504578287015190505b61450e8582614490565b865550614576565b601f19841661452486614300565b60005b8281101561454c57848901518255600182019150602085019450602081019050614527565b868310156145695784890151614565601f891682614472565b8355505b6001600288020188555050505b505050505050565b7f4e487b7100000000000000000000000000000000000000000000000000000000600052601160045260246000fd5b60006145b8826138ea565b91506145c3836138ea565b92508282026145d1816138ea565b915082820484148315176145e8576145e761457e565b5b5092915050565b7f4e487b7100000000000000000000000000000000000000000000000000000000600052603260045260246000fd5b6000614629826138ea565b9150614634836138ea565b925082820190508082111561464c5761464b61457e565b5b92915050565b7f4f6e6c792070726f6a6563742063726561746f722063616e2073656c6563742060008201527f7468652077696e6e657200000000000000000000000000000000000000000000602082015250565b60006146ae602a83613856565b91506146b982614652565b604082019050919050565b600060208201905081810360008301526146dd816146a1565b9050919050565b7f50726f6a656374206d75737420626520636c6f73656420746f2073656c65637460008201527f20612077696e6e65720000000000000000000000000000000000000000000000602082015250565b6000614740602983613856565b915061474b826146e4565b604082019050919050565b6000602082019050818103600083015261476f81614733565b9050919050565b7f42696464696e6720686173206e6f742079657420656e64656400000000000000600082015250565b60006147ac601983613856565b91506147b782614776565b602082019050919050565b600060208201905081810360008301526147db8161479f565b9050919050565b7f4e6f20626964732068617665206265656e20706c6163656420666f722074686960008201527f732070726f6a6563740000000000000000000000000000000000000000000000602082015250565b600061483e602983613856565b9150614849826147e2565b604082019050919050565b6000602082019050818103600083015261486d81614831565b9050919050565b6000819050919050565b61488f61488a826138ea565b614874565b82525050565b60006148a1828661487e565b6020820191506148b1828561487e565b6020820191506148c1828461487e565b602082019150819050949350505050565b7f50726f6a65637420646f6573206e6f7420657869737400000000000000000000600082015250565b6000614908601683613856565b9150614913826148d2565b602082019050919050565b60006020820190508181036000830152614937816148fb565b9050919050565b7f4f6e6c79207061727479206f776e65722063616e207570646174652f64656c6560008201527f74652070617274792064657461696c732e000000000000000000000000000000602082015250565b600061499a603183613856565b91506149a58261493e565b604082019050919050565b600060208201905081810360008301526149c98161498d565b9050919050565b60006149db826138ea565b91506149e6836138ea565b92508282039050818111156149fe576149fd61457e565b5b92915050565b6000614a0f826138ea565b91507fffffffffffffffffffffffffffffffffffffffffffffffffffffffffffffffff8203614a4157614a4061457e565b5b600182019050919050565b7f4f6e6c7920746865206f776e65722063616e20656e64207468652070726f6a6560008201527f6374000000000000000000000000000000000000000000000000000000000000602082015250565b6000614aa8602283613856565b9150614ab382614a4c565b604082019050919050565b60006020820190508181036000830152614ad781614a9b565b9050919050565b7f50726f6a65637420697320616c726561647920636c6f73656400000000000000600082015250565b6000614b14601983613856565b9150614b1f82614ade565b602082019050919050565b60006020820190508181036000830152614b4381614b07565b9050919050565b7f45524332303a2064656372656173656420616c6c6f77616e63652062656c6f7760008201527f207a65726f000000000000000000000000000000000000000000000000000000602082015250565b6000614ba6602583613856565b9150614bb182614b4a565b604082019050919050565b60006020820190508181036000830152614bd581614b99565b9050919050565b7f4f6e6c79207468652063726561746f72206f66207468652070726f6a6563742060008201527f63616e2075706461746520697400000000000000000000000000000000000000602082015250565b6000614c38602d83613856565b9150614c4382614bdc565b604082019050919050565b60006020820190508181036000830152614c6781614c2b565b9050919050565b7f50726f6a65637420697320636c6f73656420616e642063616e6e6f742062652060008201527f7570646174656400000000000000000000000000000000000000000000000000602082015250565b6000614cca602783613856565b9150614cd582614c6e565b604082019050919050565b60006020820190508181036000830152614cf981614cbd565b9050919050565b7f42696420646f6573206e6f742065786973740000000000000000000000000000600082015250565b6000614d36601283613856565b9150614d4182614d00565b602082019050919050565b60006020820190508181036000830152614d6581614d29565b9050919050565b7f4e487b7100000000000000000000000000000000000000000000000000000000600052603160045260246000fd5b7f50726f6a656374206973206e6f74206f70656e20666f72206269647300000000600082015250565b6000614dd1601c83613856565b9150614ddc82614d9b565b602082019050919050565b60006020820190508181036000830152614e0081614dc4565b9050919050565b7f4f776e65722063616e6e6f7420626964206f6e207468656972206f776e20707260008201527f6f6a656374000000000000000000000000000000000000000000000000000000602082015250565b6000614e63602583613856565b9150614e6e82614e07565b604082019050919050565b60006020820190508181036000830152614e9281614e56565b9050919050565b7f45524332303a20617070726f76652066726f6d20746865207a65726f2061646460008201527f7265737300000000000000000000000000000000000000000000000000000000602082015250565b6000614ef5602483613856565b9150614f0082614e99565b604082019050919050565b60006020820190508181036000830152614f2481614ee8565b9050919050565b7f45524332303a20617070726f766520746f20746865207a65726f20616464726560008201527f7373000000000000000000000000000000000000000000000000000000000000602082015250565b6000614f87602283613856565b9150614f9282614f2b565b604082019050919050565b60006020820190508181036000830152614fb681614f7a565b9050919050565b7f45524332303a207472616e736665722066726f6d20746865207a65726f20616460008201527f6472657373000000000000000000000000000000000000000000000000000000602082015250565b6000615019602583613856565b915061502482614fbd565b604082019050919050565b600060208201905081810360008301526150488161500c565b9050919050565b7f45524332303a207472616e7366657220746f20746865207a65726f206164647260008201527f6573730000000000000000000000000000000000000000000000000000000000602082015250565b60006150ab602383613856565b91506150b68261504f565b604082019050919050565b600060208201905081810360008301526150da8161509e565b9050919050565b7f45524332303a207472616e7366657220616d6f756e742065786365656473206260008201527f616c616e63650000000000000000000000000000000000000000000000000000602082015250565b600061513d602683613856565b9150615148826150e1565b604082019050919050565b6000602082019050818103600083015261516c81615130565b9050919050565b7f45524332303a20696e73756666696369656e7420616c6c6f77616e6365000000600082015250565b60006151a9601d83613856565b91506151b482615173565b602082019050919050565b600060208201905081810360008301526151d88161519c565b905091905056fea2646970667358221220b58799e36a3b090dfc692c15d6abaed354a3d30d5510b2b9d88073944b99dd8364736f6c63430008130033",
  "immutableReferences": {},
  "source": "// SPDX-License-Identifier: GPL-3.0\n\npragma solidity >=0.7.0 <0.9.0;\n\n// import \"../node_modules/@openzeppelin/contracts/token/ERC20/ERC20.sol\";  // Make sure you opened VS Code in the root directory of the project if import is giving error\nimport \"@openzeppelin/contracts/token/ERC20/ERC20.sol\";\n\ncontract ContractingPlatform is ERC20 (\"ASKS Token\", \"ASKS\" ) {\n\n    // Bidding Struct\n    struct Bid {\n        string message;\n        uint256 amount;\n        address bidder;\n    }\n    \n    // Project Structure\n    struct Project {\n        string title;\n        string description;\n        uint256 budget;\n        bool isOpen;\n        uint256[] bidIds;\n        mapping(uint256 => Bid) bids;\n        address payable creator; \n        uint256 deadline;\n        address payable lowestBidder;\n        uint256 lowestBid;\n        address[] selectedValidators;\n    }\n\n    // Party Structure\n    struct Party {\n        string name;\n        bool isValidator;\n        uint256 trust_score;\n        uint256 balance;\n        address partyAddress;\n        uint256[] projectIds;\n        mapping(uint256 => Project) projects;\n    }\n    \n    mapping (address => Party) public parties;\n    address[] public partyAddresses;\n    \n    uint256 public projectCount;\n    \n    address public admin;\n    \n    // SampleToken token = new SampleToken(1150);\n       \n    constructor() {  \n        admin = msg.sender;\n        _mint(payable(msg.sender), 5000000000000000000000000000000000000000 * (10 ** 18));\n    }\n\n\n    // Function for creating party\n    function createParty(string memory _name, address _partyAddress) public payable {\n        // require(_partyAddress != admin, \"Admin can't be a party\");\n        // require(msg.sender == admin, \"Only admin can create a party\");\n        // require(msg.sender == _partyAddress, \"A party with some different address can't be created with your address\");\n        require(parties[_partyAddress].partyAddress == address(0), \"Party already exists\");\n\n        Party storage newParty = parties[_partyAddress];\n        newParty.name = _name;\n        newParty.partyAddress = _partyAddress;\n        newParty.projectIds = new uint256[](0);\n        newParty.isValidator  = false;\n        newParty.balance = 0;\n\n        // Giving 50 token to created party\n        uint256 tokenAmount = 50; // Fixed amount of tokens to credit\n        // _mint(payable(_partyAddress), tokenAmount * (10 ** 18));\n        _transfer(admin, payable(_partyAddress), tokenAmount * (10 ** 18));\n\n        newParty.trust_score = balanceOf(_partyAddress);\n\n        // SampleToken token = new SampleToken(50);\n\n        // token.addToken()\n              \n        partyAddresses.push(_partyAddress);\n    }\n\n    // Function for updating party\n    function updateParty(string memory _name, address _partyAddress) public {\n        require(parties[_partyAddress].partyAddress != address(0), \"Party does not exist\");\n        // require(msg.sender == admin, \"Only admin can update/delete party details.\");\n        require(msg.sender == parties[_partyAddress].partyAddress, \"Only party owner can update/delete party details.\");\n        Party storage updatedParty = parties[_partyAddress];\n        updatedParty.name  = _name;\n    }\n    \n    // Function for deleting a party on platform\n    function deleteParty(address _partyAddress) public {\n        require(parties[_partyAddress].partyAddress != address(0), \"Party does not exist\");\n        require(msg.sender == parties[_partyAddress].partyAddress, \"Only party owner can update/delete party details.\");\n        delete parties[_partyAddress];\n        for (uint256 i = 0; i < partyAddresses.length; i++) {\n            if (partyAddresses[i] == msg.sender) {\n                partyAddresses[i] = partyAddresses[partyAddresses.length - 1];\n                partyAddresses.pop();\n                break;\n            }\n        }\n    }\n\n    // Function for creating a project\n    function createProject(uint256 _budget, string memory _title, string memory _description, uint256 _deadline) public returns (uint256) {\n        require(parties[msg.sender].partyAddress != address(0), \"Party does not exist\");\n        uint256 projectId = projectCount;\n        Project storage newProject = parties[msg.sender].projects[projectId];\n        newProject.title = _title;\n        newProject.description = _description;\n        newProject.budget = _budget;\n        newProject.isOpen = true;\n        newProject.bidIds = new uint256[](0);\n        newProject.creator = payable(msg.sender);\n        newProject.deadline = _deadline;\n        newProject.lowestBidder = payable(address(0));\n        newProject.lowestBid = 0;\n\n        address[] memory sortedlist = sortByTrustScore();\n        uint len = sortedlist.length;\n\t    uint mnm = len > 10 ? 10 : len;\n        for(uint i = 0; i < mnm; i++) {\n            // uint index = random() % partyAddresses.length;\n            if(sortedlist[len - i - 1] != parties[msg.sender].partyAddress) {\n                newProject.selectedValidators.push(sortedlist[len - i - 1]);\n                parties[msg.sender].isValidator = true;\n            }\n        }\n\n        parties[msg.sender].projectIds.push(projectId);\n        projectCount++;\n        return projectId;\n    }\n\n    // Function for updating projects\n    function updateProject(uint256 _projectId, uint256 _newBudget, string memory _newTitle, string memory _newDescription, uint256 _newDeadline) public {\n        Project storage project = parties[msg.sender].projects[_projectId];\n        require(project.budget > 0, \"Project does not exist\");\n        require(project.creator == msg.sender, \"Only the creator of the project can update it\");\n        require(project.isOpen, \"Project is closed and cannot be updated\");\n        project.budget = _newBudget;\n        project.title = _newTitle;\n        project.description = _newDescription;\n        // project.isOpen = _isOpen;\n        project.deadline = _newDeadline;\n    }\n    \n    // Function for closing projects\n    function closeProject(uint256 _projectId) public {\n        Project storage project = parties[msg.sender].projects[_projectId];\n        require(project.budget > 0, \"Project does not exist\");\n        require(msg.sender == project.creator, \"Only the owner can end the project\");\n        require(block.timestamp >= project.deadline, \"Bidding has not yet ended\");\n        require(project.isOpen, \"Project is already closed\");\n        project.isOpen = false;\n    }\n\n    // Function for creating bids on projects\n    function createBid(address _partyAddress, uint256 _projectId, string memory _message, uint256 _amount) public{\n        Project storage project = parties[_partyAddress].projects[_projectId];\n        require(parties[msg.sender].partyAddress != address(0), \"Party does not exist\");\n        require(project.budget > 0, \"Project does not exist\");\n        require(project.isOpen, \"Project is not open for bids\");\n        // require(block.timestamp < project.deadline, \"Bidding has ended\");\n        require(msg.sender != project.creator, \"Owner cannot bid on their own project\");\n\n        Bid memory newBid = Bid({\n            message: _message,\n            amount: _amount,\n            bidder: msg.sender\n        });\n        uint256 bidId = project.bidIds.length;\n        project.bidIds.push(bidId);\n        project.bids[bidId] = newBid;\n    }\n\n    // Function for selecting party with minimum bid and returning amounts to all \n    function selectBid(address _partyAddress, uint256 _projectId) public payable {\n        Project storage project = parties[_partyAddress].projects[_projectId];\n        require(msg.sender == project.creator, \"Only project creator can select the winner\");\n        require(!project.isOpen, \"Project must be closed to select a winner\");\n        require(block.timestamp >= project.deadline, \"Bidding has not yet ended\");\n\n        uint256 bidCount = project.bidIds.length;\n\n        require(bidCount > 0, \"No bids have been placed for this project\");\n    }\n\n    // For getting bid count on a particular project\n    function getBidCount(address _partyAddress, uint256 _projectId) public view returns (uint256) {\n\t    require(parties[_partyAddress].projects[_projectId].budget > 0, \"Project does not exist\");\n\t    return parties[_partyAddress].projects[_projectId].bidIds.length;\n\t}\n\n    // For getting bid details like message, amount, address of bidders \n    function getBidDetails(address _partyAddress, uint256 _projectId, uint256 _bidId) public view returns (string memory, uint256, address) {\n\tProject storage project = parties[_partyAddress].projects[_projectId];\n\trequire(project.bids[_bidId].amount > 0, \"Bid does not exist\");\n\treturn (\n\t\tproject.bids[_bidId].message,\n\t\tproject.bids[_bidId].amount,\n\t\tproject.bids[_bidId].bidder\n\t);\n    }\n\n    // Function for getting details of a particular party\n    function getPartyDetails(address _partyAddress) public view returns (string memory, address, uint256, uint256, bool, uint256[] memory){\n        Party storage party = parties[_partyAddress];\n        require(party.partyAddress != address(0), \"Party does not exist\");\n        return (party.name, party.partyAddress, party.balance, party.trust_score, party.isValidator, party.projectIds);\n        // require(parties[_partyAddress].partyAddress != address(0), \"Party does not exist\");\n        // return (parties[_partyAddress].name, parties[_partyAddress].partyAddress, parties[_partyAddress].reputations);\n    }\n\n    // Function for getting project counts\n    function getProjectCount(address _partyAddress) public view returns (uint256) {\n        require(parties[_partyAddress].partyAddress != address(0), \"Party does not exist\");\n        return parties[_partyAddress].projectIds.length;\n    }\n\n    // Function for getting all the projects ids associated with a particular party\n    function getProjectIds(address _partyAddress) public view returns (uint256[] memory) {\n        require(parties[_partyAddress].partyAddress != address(0), \"Party does not exist\");\n        return parties[_partyAddress].projectIds;\n    }\n\n    // Function for getting details of a project\n    function getProjectDetails(address _partyAddress, uint256 _projectId) public view returns (string memory, string memory, uint256, bool, uint256, address[] memory) {\n\trequire(parties[_partyAddress].projects[_projectId].budget > 0, \"Project does not exist\");\n\treturn (\n\tparties[_partyAddress].projects[_projectId].title,\n\tparties[_partyAddress].projects[_projectId].description,\n\tparties[_partyAddress].projects[_projectId].budget,\n\tparties[_partyAddress].projects[_projectId].isOpen,\n\tparties[_partyAddress].projects[_projectId].deadline,\n\tparties[_partyAddress].projects[_projectId].selectedValidators\n\t);\n    }\n\n    // Function for getting total no of parties\n    function getPartyCount() public view returns (uint256) {\n        return partyAddresses.length;\n    }\n    \n    // Function for getting the address of a particular party.\n    function getPartyAddress(uint256 index) public view returns (address) {\n        return partyAddresses[index];\n    }\n\n    // Driving function for sorting parties based on reputations\n    function sortByTrustScore() private view returns(address[] memory) {\n        address[] memory party = partyAddresses;\n        for (uint i = 1; i < partyAddresses.length; i++) {\n            for (uint j = 0; j < i; j++) {\n                if (parties[party[i]].trust_score < parties[party[j]].trust_score) {\n                    address x = party[i];\n                    party[i] = party[j];\n                    party[j] = x;\n                }\n            }\n        }\n        return party;\n    }\n\n    // Function random\n    function random() public view returns(uint) {\n        return uint(keccak256(abi.encodePacked(block.prevrandao, block.timestamp, partyAddresses.length)));\n    }\n}\n",
  "sourcePath": "/media/shrawan/Local Disk/Visual Studio Code/tendering/contracts/main.sol",
  "compiler": {
    "name": "solc",
    "version": "0.8.19+commit.7dd6d404.Emscripten.clang"
  },
  "schemaVersion": "3.4.13",
  "updatedAt": "2023-04-09T05:50:37.588Z",
  "networkType": "ethereum",
  "devdoc": {
    "events": {
      "Approval(address,address,uint256)": {
        "details": "Emitted when the allowance of a `spender` for an `owner` is set by a call to {approve}. `value` is the new allowance."
      },
      "Transfer(address,address,uint256)": {
        "details": "Emitted when `value` tokens are moved from one account (`from`) to another (`to`). Note that `value` may be zero."
      }
    },
    "kind": "dev",
    "methods": {
      "allowance(address,address)": {
        "details": "See {IERC20-allowance}."
      },
      "approve(address,uint256)": {
        "details": "See {IERC20-approve}. NOTE: If `amount` is the maximum `uint256`, the allowance is not updated on `transferFrom`. This is semantically equivalent to an infinite approval. Requirements: - `spender` cannot be the zero address."
      },
      "balanceOf(address)": {
        "details": "See {IERC20-balanceOf}."
      },
      "decimals()": {
        "details": "Returns the number of decimals used to get its user representation. For example, if `decimals` equals `2`, a balance of `505` tokens should be displayed to a user as `5.05` (`505 / 10 ** 2`). Tokens usually opt for a value of 18, imitating the relationship between Ether and Wei. This is the value {ERC20} uses, unless this function is overridden; NOTE: This information is only used for _display_ purposes: it in no way affects any of the arithmetic of the contract, including {IERC20-balanceOf} and {IERC20-transfer}."
      },
      "decreaseAllowance(address,uint256)": {
        "details": "Atomically decreases the allowance granted to `spender` by the caller. This is an alternative to {approve} that can be used as a mitigation for problems described in {IERC20-approve}. Emits an {Approval} event indicating the updated allowance. Requirements: - `spender` cannot be the zero address. - `spender` must have allowance for the caller of at least `subtractedValue`."
      },
      "increaseAllowance(address,uint256)": {
        "details": "Atomically increases the allowance granted to `spender` by the caller. This is an alternative to {approve} that can be used as a mitigation for problems described in {IERC20-approve}. Emits an {Approval} event indicating the updated allowance. Requirements: - `spender` cannot be the zero address."
      },
      "name()": {
        "details": "Returns the name of the token."
      },
      "symbol()": {
        "details": "Returns the symbol of the token, usually a shorter version of the name."
      },
      "totalSupply()": {
        "details": "See {IERC20-totalSupply}."
      },
      "transfer(address,uint256)": {
        "details": "See {IERC20-transfer}. Requirements: - `to` cannot be the zero address. - the caller must have a balance of at least `amount`."
      },
      "transferFrom(address,address,uint256)": {
        "details": "See {IERC20-transferFrom}. Emits an {Approval} event indicating the updated allowance. This is not required by the EIP. See the note at the beginning of {ERC20}. NOTE: Does not update the allowance if the current allowance is the maximum `uint256`. Requirements: - `from` and `to` cannot be the zero address. - `from` must have a balance of at least `amount`. - the caller must have allowance for ``from``'s tokens of at least `amount`."
      }
    },
    "version": 1
  },
  "userdoc": {
    "kind": "user",
    "methods": {},
    "version": 1
  }
}